:020000040800F2
:10000000A8580020550300085D0300085F0300089E
:100010006103000863030008650300080000000096
:10002000000000000000000000000000670300085E
:1000300069030008000000006B0300086D0300085E
:100040006F0300086F0300086F030008A94300084E
:100050006F0300086F0300086F0300086F030008B8
:100060006F0300086F0300086F0300086F030008A8
:100070006F0300086F0300086F0300086F03000898
:100080006F0300086F0300086F0300086F03000888
:100090006F0300086F0300086F0300086F03000878
:1000A0006F0300086F0300086F0300086F03000868
:1000B0006F0300086F0300086F0300086F03000858
:1000C0006F0300086F0300086F0300086F03000848
:1000D0006F030008BD470008E947000859480008B9
:1000E0006F0300086F0300086F0300086F03000828
:1000F0006F0300086F0300086F0300086F03000818
:100100006F0300086F0300086F0300086F03000807
:100110006F0300086F0300086F0300086F030008F7
:100120006F0300086F0300086F0300086F030008E7
:100130006F0300086F0300086F0300086F030008D7
:100140006F0300086F0300086F0300086F030008C7
:100150006F0300086F0300086F0300086F030008B7
:100160006F0300086F0300086F0300086F030008A7
:100170006F0300086F0300086F0300086F03000897
:100180006F0300086F03000800F002F800F0B8F8F1
:100190000AA090E8000C82448344AAF10107DA45E2
:1001A00001D100F0ADF8AFF2090EBAE80F0013F07C
:1001B000010F18BFFB1A43F0010318470483000026
:1001C0002483000010F8013B0A4413F0030408BF25
:1001D00010F8014B1D1108BF10F8015B641E05D01B
:1001E00010F8016B641E01F8016BF9D1002D15D0D8
:1001F00010F8014B03F00C030C2BA1EB04040ABF15
:1002000010F8013BA4EB8314A4EB032405F10103D4
:1002100014F8016B5B1E01F8016BF9D5914238BFF0
:1002200010F8013BD1D3704700230024002500269D
:10023000103A28BF78C1FBD8520728BF30C148BF49
:100240000B6070476E2900F0E683702900F09D81F5
:10025000662907F0EE83652907F0EB83672907F02D
:10026000E883612907F0E78303681B0A28BF41F090
:100270008001692900F00E81642900F00B81752945
:1002800000F008816F2900F0DF84782900F069818F
:10029000E92900F07984E42900F07684F52900F05A
:1002A0007384EF2900F0DC84F82900F0688103688A
:1002B000DB0928BF41F08001632900F0E88373293E
:1002C00000F0ED83E32901F0ED80F32901F0F280E5
:1002D000002070471FB507F0A7FB00F03AFA01F0C5
:1002E00037F904000020002107F0DCF8401C6060B2
:1002F0000020002107F0ECF8E0601FBD10B510BD34
:1003000001F000F91146FFF7E5FF05F0D9FD01F016
:10031000D1F903B4FFF7F2FF03BC04F018FC0000AE
:100320000B49D1F800C04A685CF8043B10681844D7
:1003300042F8040B8C4528BFA1F1DC0C8A4228BF8F
:10034000A1F1DC02C1F800C04A6020F00040704713
:100350003C5200200948804709480047FEE7FEE775
:10036000FEE7FEE7FEE7FEE7FEE7FEE7FEE7FEE765
:1003700004480549054A064B704700004D460008F1
:1003800089010008A8520020A8580020A854002085
:10039000A8540020704700000FB4044910B503AA08
:1003A000029800F081FB10BC5DF814FBD022002005
:1003B0000FB4044910B503AA029800F075FB10BCF5
:1003C0005DF814FBD02200200FB41CB5084B06AA20
:1003D0007B4469460090059800F037FB04460020F6
:1003E000694600F045FB20461CBC5DF814FB00008C
:1003F0009D06000070B5044685690068C10601D5F8
:10040000302600E02026C00707D070BDD4E90121C6
:1004100030469047206A401C20626D1EF6D570BDA4
:1004200070B5044685690078C00707D170BDD4E96E
:10043000012120209047206A401C20626D1EF6D5C5
:1004400070BD70B50C460546012A05D02878800697
:1004500000D5EA69002302E0012305E05B1C93421A
:1004600002D2E05C0028F9D1A869E618C01AA86198
:10047000286A184428622846FFF7BCFF04E0D5E943
:10048000012114F8010B9047B442F8D32846FFF736
:10049000C7FF70BD2DE9F04106460024106875299C
:1004A000314616A510D000F04BFA002802DA40427F
:1004B00013A507E031688A0701D512A502E04907B4
:1004C00004D511A5012401E000F043FA00210A221D
:1004D00006F1240709E0B0FBF2FCB0FBF2F302FBEB
:1004E0001C00303078541846491C0028F3D12346AC
:1004F0002A463046BDE8F04100F034BA0000000062
:100500002D0000002B00000020000000F0B40D467C
:100510000188090502D5214C7C4402E01F4C7C4433
:100520000E34002100F1240608E002F00F07120942
:10053000E75D42EA03721B097754491C52EA03073C
:10054000F3D102780023120704D5702D06D009B12B
:10055000022311342246F0BC00F004BA0123103407
:10056000F8E770B504460D462146106800F0F1F931
:10057000024629462046BDE870400023C6E7D21D4A
:1005800022F00703D3E90023C0E70368126843F0B1
:10059000200303600823C3610023B7E7297E00001E
:1005A0002DE9F05F894604464FF0000ADFF874B188
:1005B000FB44C0F820A02046E1688847002874D09A
:1005C000252806D0D4E901219047206A401C2062EA
:1005D000F1E700265F462046E16888472028054667
:1005E00007DB312D05D2781910F8200C08B106432D
:1005F000F1E7B00701D526F00406C4F81CA00027D7
:10060000C4F818A02A2D09D0284604F099FA38B366
:1006100004EB8708303DC8F8185019E059F8041B5E
:10062000204604EB87029161E1688847012F054667
:1006300018D1E069002820DA26F020061DE0D8F85D
:10064000180000EB800005EB40003038C8F81800B7
:100650002046E1688847054604F072FA0028EED18A
:10066000012F0AD02E2D08D12046E16888477F1C33
:100670000546022F46F02006C4DBA069002803DAF5
:10068000404246F00106A061F00701D026F01006B6
:100690006C2D0BD0682D09D04C2D39D06A2D35D05A
:1006A000742D35D07A2D33D016E038E0E1682F462E
:1006B00020468847B842054609D16C2F26D04FF412
:1006C0008060E168064320468847054604E06C2FB9
:1006D0001AD04FF4807006430DB3A5F141001928DC
:1006E00002D8203546F400664A4629462046266050
:1006F0004E46FFF7A7FD80B101280BD0F61D26F06E
:10070000070000F1080956E74020E4E78020D8E719
:100710000020D6E706F104094DE7284652E7206A93
:10072000BDE8F09FB97D00000B4910B5A1F17C0236
:100730000A4CC2E93712372106E000EB104342F8B9
:100740002130074B00FB03400B1EA1F10101F4DC3B
:1007500010BD0120E8E70000DC510020E119D66659
:10076000CD0D010030B505460B462A4613F8014B66
:1007700012F8010B08B1A042F8D01CB1002802D039
:100780006D1CF1E7284630BD40EA010310B59B0718
:100790000FD1042A0DD310C808C9121F9C42F8D0EB
:1007A00020BA19BA884201D9012010BD4FF0FF309C
:1007B00010BD1AB1D30703D0521C07E0002010BDB2
:1007C00010F8013B11F8014B1B1B07D110F8013B3E
:1007D00011F8014B1B1B01D1921EF1D1184610BD1F
:1007E00010B5431C02E010F8011B71B18107FAD16A
:1007F0004FF0013202C88C1A8C4314EAC211F9D0AE
:10080000C01A0A0603D0C01E10BDC01A10BD0A04CB
:1008100001D0801E10BD0902FCD0401E10BD032A6D
:1008200040F2308010F0030C00F0158011F8013B0D
:10083000BCF1020F624498BF11F801CB00F8013BF4
:1008400038BF11F8013BA2F1040298BF00F801CBB8
:1008500038BF00F8013B11F0030300F00B82083AA7
:10086000C0F0088051F8043B083A51F804CBA0E8E6
:100870000810F5E7121D5CBF51F8043B40F8043B3B
:10088000AFF30080D20724BF11F8013B11F801CB70
:1008900048BF11F8012B24BF00F8013B00F801CB41
:1008A00048BF00F8012B70474FF000020429C0F048
:1008B000128010F0030C00F01B80CCF1040CBCF192
:1008C000020F18BF00F8012BA8BF20F8022BA1EBE4
:1008D0000C0100F00DB85FEAC17C24BF00F8012BC9
:1008E00000F8012B48BF00F8012B70474FF00002C1
:1008F00000B5134694469646203922BFA0E80C5016
:10090000A0E80C50B1F12001BFF4F7AF090728BFF0
:10091000A0E80C5048BF0CC05DF804EB890028BF6C
:1009200040F8042B08BF704748BF20F8022B11F095
:10093000804F18BF00F8012B704770477047704711
:1009400009684A0501D540B27047C905FCD500B217
:10095000704709684A0501D5C0B27047C905FCD582
:1009600080B270472DE9F0470D46994692460446FD
:1009700000F124080168880604D5E06921F010011F
:10098000216000E00120A84201DD471B00E00027B4
:10099000A1697A1902EB0900081AA0612078C00643
:1009A00002D42046FFF726FD002608E0D4E9012105
:1009B0001AF806009047206A401C761C20624E45BB
:1009C000F4DB2078C0060AD52046FFF713FD06E0C9
:1009D000D4E9012130209047206A401C2062381E53
:1009E000A7F10107F4DC07E0D4E9012118F80500BC
:1009F0009047206A401C2062281EA5F10105F3DC07
:100A00002046FFF70DFD2078000602D50220BDE844
:100A1000F0870120FBE711680268006A530501D5E1
:100A200008700AE0D30501D5088006E0130603D557
:100A3000C217C1E9000200E0086001207047000011
:100A400001694A1C02610878704700B58FB0CDE992
:100A500001310021059105497944CDE90310114682
:100A60006846FFF79DFD0FB000BD0000E5FFFFFFEA
:100A70000A6802F8010B0A60704710B5436913B1A8
:100A8000AFF3008001E0FFF7DCFC012010BD12781D
:100A900000F124010A7000224A700122EDE711687A
:100AA0004FF0FF32E9E70000074B70B50D467B447D
:100AB000FFF7CBFF0446284600F000FD10B14FF0D1
:100AC000FF3070BD204670BDFF4C00002DE9FF5F78
:100AD00015468A460446DFF8AC80F8440027D8E97A
:100AE00000103E46CDE9001010E03AF816106A46B4
:100AF00002A800F0E7FC411C07D02178890603D545
:100B0000E269391891420DD80744761C2078800696
:100B100002D5E069B84205DDAE42E6DB3AF81600E0
:100B20000028E2D1A069C01BA0612046FFF762FC4B
:100B3000D8E90010CDE90010002017E03AF81810AD
:100B40006A4602A800F0BEFCB0F1FF3F81460BD020
:100B500000250DF1080B05E0D4E901211BF8050083
:100B600090476D1C4D45F7D308F10100B042804617
:100B7000E4DB206A384420622046FFF751FCBDE8E0
:100B8000FF9F0000A27800002DE9F0418046D21DB1
:100B900022F007020025D2E90002F52915A614D09B
:100BA000011E72F1000106DA0023D0EB030063EBB3
:100BB000020211A608E0D8F800108B0701D50FA695
:100BC00002E0490701D50EA601251146002408F1CF
:100BD000240704E000F08CF830323A55641C50EAE7
:100BE0000102F7D12B46324621464046BDE8F0418E
:100BF000FFF7B8BE000000002D0000002B00000031
:100C00002000000030B4002100F1240408E002F0CC
:100C10000705D208303542EA4372DB086554491CA7
:100C200052EA0305F3D10468002310A2250708D572
:100C300004F020040C4304D0C46901230CA2641EF8
:100C4000C46130BCFFF78EBE10B504462146106863
:100C5000FFF77FFE02462046BDE810400023D1E7A3
:100C6000D21D22F00701D1E90023CBE700000000EC
:100C70003000000010B5203AC0F00B80B1E81850E9
:100C8000203AA0E81850B1E81850A0E81850BFF476
:100C9000F5AF5FEA027C24BFB1E81850A0E8185015
:100CA00044BF18C918C0BDE810405FEA827C24BF69
:100CB00051F8043B40F8043B08BF7047D20728BFF7
:100CC00031F8023B48BF11F8012B28BF20F8023B46
:100CD00048BF00F8012B704700487047445200207D
:100CE00010B500F035FC001D10BD00BFB967000055
:100CF00030B5B0F10A024FEA900E71F100034EEAEE
:100D0000817EB0EB0E0061EB91014FEA101E4EEABE
:100D1000017E10EB0E0041EB11114FEA102E4EEA4E
:100D2000016E10EB0E0041EB11214FEA104E4EEA1E
:100D3000014E10EB0E0041EB1141401841F1000152
:100D40004FEAD00040EA41704FEAD10110EB800534
:100D50004FEA810444EA907444EB01046D1944EBBA
:100D60000404521BA3414FF0000348BF0A3200D5D0
:100D700030BD401C41F1000130BD70472DE9FF4FEF
:100D80000C461E464FF0FF378BB0D2E90001DDF86C
:100D900060800A908A46C1F30A5505B93D46002194
:100DA00008464FF00000BAF1000F00F4400005DAE9
:100DB00000EB80004FF4400101EA50004FEA9059E7
:100DC000B9F1010F00DDB9460A9850EA4A000ED089
:100DD00044F61050A5F2FF3545432F14B8F1000F2B
:100DE0001ED07542291E1EDDC9F100021CE0B8F1BB
:100DF000010F4FF0000001D0302103E0F24305E085
:100E00002154401CB042FBDB30460022002121541B
:100E10000B99C1F80880C1E900200FB0BDE8F08F40
:100E2000BD1B6D1CDEE74A4600DA694206A800F0E9
:100E3000D3FB06AB93E8070003AB83E807005046FB
:100E40000A9900F07DFC8DE80700A0F500501F38DE
:100E500000900398002D09DD42F21F014A46084424
:100E600003A90390684600F0DCFE08E0A0F50050FE
:100E70004A461F3803A90390684600F0E6FE8DE855
:100E800007000004000C03D04FF0FF30410800E0E1
:100E90001046B8F1000F03D00022009215461EE064
:100EA000751E05D4FFF724FF303262556D1EF9D54B
:100EB000B3460122084302D000227F1C04E02078C0
:100EC000302801D100227F1E002A099786D01DE01C
:100ED000112D07DAFFF70CFF303262556D1C50EA16
:100EE0000102F5D1084302D00098C8B10EE00021FC
:100EF000681E05E0235C625C63542254401E491C5A
:100F00008142F7DBAB46A81B401E0990002004F885
:100F10000B000B98099AC0F80880C0E9002B7CE709
:100F200011264FF0000859E72DE9F04F8846044696
:100F3000D21D22F0070191B0D1E90001CDE90A01EB
:100F400003F0E6FD02460B98C00F01D02D2007E00C
:100F50002068810701D52B2002E0202101EAC00092
:100F6000032A099001D0072A05DB034641462046A3
:100F700000F0F2FA0BE12078800601D5E06900E08C
:100F80000620B8F1650F814606D0B8F1660F18D07B
:100F9000B8F1670F70D131E00020B9F1110F009066
:100FA00001DB112301E009F101030AAA01A90CA840
:100FB000FFF7E4FEDDE90C70002609F10105834628
:100FC00047E001204B4600904FF000470AAA01A9D4
:100FD0000CA8FFF7D3FEDDE90DB00C995D460026A5
:100FE00010B909F101000D18B9EB050003D4C0F1E7
:100FF000FF3609F10105A5EB09002BE0B9F1010F5E
:1010000001DA4FF001090020B9F1110F00904846B4
:1010100001DD112300E003460AAA01A90CA8FFF78D
:10102000ADFEDDE90C704D460026834620780007B2
:101030000AD4AB4500DA5D4601A8012D04DD411953
:1010400011F8011C302907D04F4502DA17F1040FBF
:1010500004DA012082460FE06D1EEEE7002F02DC6D
:10106000ED1B3E4403E0781CA84200DD7D1CB81B4C
:1010700000F1010A4FF000472078000703D4AA4589
:1010800001DB4FF0FF3A0021B7F1004F0DF14308AB
:101090008DF8431024D002202B23002F01DA7F4249
:1010A0002D230A21021EA0F1010000DC5FB197FB95
:1010B000F1FC97FBF1F201FB1C7C17460CF1300CA4
:1010C00008F801CDEEE7A8F10100037021880905B9
:1010D00001D5452100E06521A0F1010800F8011CBF
:1010E00009980FA9A1EB0807FF1D00B101204119C4
:1010F00001EBEA70A1693844081A401EA06120780B
:10110000C00602D42046FFF775F9099828B1D4E942
:1011100001219047206A401C20622078C00622D519
:101120002046FFF767F91EE0002E04DBB34502DD21
:1011300001A8805D00E03020D4E901219047206AB9
:10114000401C2062761CAAF101005FEA000A0AD165
:1011500000F0FEF9C0680168405CD4E901219047C5
:10116000206A401C2062281EA5F10105DCDC07E096
:10117000D4E9012118F8010B9047206A401C206235
:10118000381EA7F10107F3DC2046FFF749F90320D9
:1011900011B043E62DE9F04F04460D46D21D22F072
:1011A000070089B0D0E9009248461746394603F057
:1011B000AFFC0246F80F01D02D2307E0206881071D
:1011C00001D52B2302E0202101EAC0038DF8203055
:1011D0000BB1012000E00020032A824601D0072A3B
:1011E00004DB2946204600F0B7F93DE1207880066F
:1011F00001D40D2500E0E569C7F30A560D2D49DA43
:1012000000214FEA175B08464FF00000002F00F462
:10121000400007DA00EB80004FF4400100EBD07093
:1012200001EA60008115012901DD4FF0FF31002244
:101230004FEA850CBCF1180F06D31346ACF1180029
:101240004FF08052C24003E04FF4801323FA0CF3B6
:101250000CF10C0CBCF1200F04D3ACF1200C09FAFA
:101260000CF001E007FA0CF000294FF0004801DD16
:1012700018B90FE00ED140450CD319EB02095F41BC
:1012800021B9404502D19F4329EA0209BBEB175F10
:1012900000D0761C2088000502D57B48784402E007
:1012A00079487844193808AA302302F80A30037CB8
:1012B0000AF10101002E0AF1020A53546A4602DCC7
:1012C0004FF0300101E04FF031014FF001088DF88F
:1012D000001002D0A6F2FF3603E059EA470100D021
:1012E0006A4E002D02DC2178090704D54FF0020870
:1012F0002E218DF80110C44600210BE0C7F30343F3
:101300003F01C35C491C6D1E02F80830052908F135
:10131000010801DA002DF1DC00210CE000EB19736B
:10132000491C1B786D1E082902F808304FEA09197C
:1013300008F1010801DA002DF0DC2178890602D5D8
:1013400014E0A8F10108E04505DD02EB080111F801
:10135000011C3029F5D0B8F1000F07DD02EB0801C0
:1013600011F8011C2E2901D1A8F10108002D05DD7D
:101370003E2102F808106D1E08F10108407C002E85
:1013800002F8080008F1010804DA2D20764202F87C
:10139000080002E02B2002F808000A214FF47A70BE
:1013A000864208F101080BDB96FBF0F3303302F8BC
:1013B000083096FBF0F308F1010800FB136601E02A
:1013C000642E0CDB642096FBF0F3303302F8083017
:1013D00096FBF0F308F1010800FB136601E00A2E0A
:1013E00006DB96FBF1F0303002F8080008F1010846
:1013F00096FBF1F001FB1060303002F80800A169A3
:1014000008F1010808EB050202EB0A00081AA061C6
:101410002078C00602D42046FEF7ECFF216A08AE11
:1014200001EB0A00206204E0D4E9012116F8010B67
:101430009047BAF1010AF7D22078C00602D52046BB
:10144000FEF7D8FF6E4609E016F8010B3E280FD0D4
:10145000D4E901219047206A401C2062B8F10108BC
:10146000F2D22046FEF7DCFF09B00320BDE8F08F82
:10147000206A2844206203E0D4E90121302090470B
:101480006D1EEBD3F8E70000FB70000002FCFFFFCD
:1014900010B5436913B1AFF3008001E0FFF716FB0D
:1014A000012010BD128800F1240182840022C28430
:1014B0000122EDE711684FF0FF32E9E7007B00F011
:1014C0008000704770B516460C460546FFF708FCCD
:1014D000036893F80101012806D0FF2C0FD8185D8E
:1014E00068B101202C7070BDD3F807013246214647
:1014F00003F2071303442846BDE8704018474FF035
:10150000FF3070BD7546FFF7E7FBAE460500694644
:10151000534620F00700854618B020B5FEF728FF97
:10152000BDE820404FF000064FF000074FF00008E4
:101530004FF0000B21F00701AC46ACE8C009ACE865
:10154000C009ACE8C009ACE8C0098D46704700008E
:1015500000487047645200202DE9F0411F460446C0
:1015600003260168072A01F4006004DB08B116A510
:1015700005E016A503E008B115A500E015A521F0CA
:1015800010002060A069C01EA0610FB1401EA061C4
:101590002046FEF72FFF4FB1D4E90121384690478E
:1015A000206A401C2062C01C206206E0206AFAE724
:1015B000D4E9012115F8010B9047761EF8D2204698
:1015C000FEF72EFFBDE8F0814E414E006E616E00C9
:1015D000494E4600696E66002DE9F0478146164681
:1015E0008AB0334878440DC88DE80D0030487844FF
:1015F000801C03AC0DC884E80D0041F69B30084404
:10160000372190FBF1F290FBF1F5A5F1800501FB8C
:1016100012041B3C02D56442012000E00020DFF8E8
:1016200090A080460027FA44AAF1BE0A0DE0E00728
:1016300009D03246684607EB47010AEB810100F00A
:1016400004FB8DE8070064107F1C002CEFD1184FBD
:101650007F44AC3F18E0E80714D007EB04100DF10D
:10166000180A90E80E008AE80E00C068F04201D126
:1016700098190890324606A903A800F0E6FA03ABD1
:1016800083E807006D10641C002DE4D132466946E2
:10169000B8F1000F03A802D000F0C3FA01E000F097
:1016A000D4FAC9E90001C9F808200AB0BDE8F087FA
:1016B000446E00000446AFF300802046FEF729FE8A
:1016C0004FF0013C50F8042B51F8043B9A4221D1D1
:1016D000A2EB0C03934313EACC1317D150F8042B5D
:1016E00051F8043B9A4215D1A2EB0C03934313EA41
:1016F000CC130BD150F8042B51F8043B9A4209D17A
:10170000A2EB0C03934313EACC13DBD04FF00000A1
:10171000704700BFD01A01BAB1FA81F101F0180187
:1017200022FA01F0CB40C1F12001DBB2C0B2C01AF5
:101730002CFA01F3D11A914311EAC311E6D1704793
:101740005FEA400C08BF91F0000F4FEA8C234FEA8C
:10175000C12243EA51514FEA1C5018BF00F5F04036
:101760004FEA300018BF41F000415FEA6C5C00F0C6
:101770002980BCF1FF3F08BF40F080407047130C48
:1017800006BF12044FF0100C4FF0000C130E04BFF4
:1017900012020CF1080C130F04BF12010CF1040C1F
:1017A000930F04BF92000CF1020CD30F04BF520040
:1017B0000CF1010C11464FF00002A0F11F00A0EB4C
:1017C0000C00704711F0004F08BF704731F0004126
:1017D0003FF4D5AF0B0C06BF09044FF0100C4FF0CF
:1017E000000C0B0E04BF09020CF1080C0B0F04BF18
:1017F00009010CF1040C8B0F04BF89000CF1020CE1
:10180000CB0F04BF49000CF1010CCCF12003A0EB7D
:101810000C0022FA03F302FA0CF241EA030100F190
:101820000100704720F07F4C80EA030023F07F47DF
:10183000ACEB070303F57C5300F0004003F1FF031A
:101840002DE980494FEA154B09B44FEA144325EAC4
:101850000B4E24EA03480FF2042606EB132749082F
:101860003E785FEA320203FB0667C7F5000707FB15
:1018700006F64FEA54374FEAD64606F1020607FB52
:10188000066CCCF1005C4FEA1C472CEA074C07FBC6
:1018900006F40CFB06F504EB15464FEA961634BF2A
:1018A00000204FF000404FEAD13706FB07FC4FEA1B
:1018B0001C4C0CFB0BF7D21B03FB0CF761EB070175
:1018C0000CFB0EF7B0EB074072EB17420CFB08F76E
:1018D00034BFA2EB0742B2EB074261EB17414FEA7C
:1018E0000C444FEA910706FB07FC4FEA1C4C0CFB2B
:1018F0000BF7B0EBC74072EB573203FB0CF734BF6A
:10190000A2EBC742B2EBC74261EB57310CFB0EF7BB
:10191000B0EBC70072EB57720CFB08F734BFA2EBB9
:10192000C702B2EBC70261EB5771039F4FEA8161B7
:1019300041EA921104EBCC044FEAD1374FEA8262BC
:1019400006FB07FC42EA90124FEA80604FEA1C4C0B
:101950000CFB0BF7D21B03FB0CF761EB07010CFB35
:101960000EF7B0EB074072EB17420CFB08F734BFE1
:10197000A2EB0742B2EB074261EB17414FEA8C55ED
:101980004FEA910704EB9C2406FB07FC4FEA1C4C32
:101990000CFB0BF7B0EBC74072EB573203FB0CF7B5
:1019A00034BFA2EBC742B2EBC74261EB57310CFB2D
:1019B0000EF7B0EBC70072EB57720CFB08F734BFA1
:1019C000A2EBC702B2EBC70261EB577115EB4C25D6
:1019D0004FEA816141EA92114FEA82624FEAD137C0
:1019E00042EA901206FB07FC44F100044FEA8060D3
:1019F0004FEA1C4C0CFB0BF7D21B03FB0CF761EB03
:101A000007010CFB0EF7B0EB074072EB17420CFB23
:101A100008F734BFA2EB0742B2EB074261EB174174
:101A200015EB1C154FEA813141EA92414FEA8232AF
:101A300042EA90424FEA80304FEA0C7644F10004CB
:101A400048EA03434EEA0B484FF0000EB2EB080C95
:101A500071EB030724BF624639464EEB0E0E4FF082
:101A6000000B0018524149414BEB0B0BB2EB080C39
:101A700071EB03077BF1000B24BF624639464EEB46
:101A80000E0E4FF0000B0018524149414BEB0B0B6F
:101A9000B2EB080C71EB03077BF1000B24BF62462D
:101AA00039464EEB0E0E51EA020718BF46F001060A
:101AB00016EB0E7655F1000254F1000103D5BDE896
:101AC0008901BDE80088BDE88901BDE80048B61974
:101AD000524141EB0101A3F10103704780807F7EF9
:101AE0007D7C7B7A79787776767574737271717094
:101AF0006F6E6E6D6C6C6B6A6A6968686766666546
:101B00006464636362616160605F5F5E5E5D5D5CD3
:101B10005C5B5B5A5A595958585757565655555544
:101B20005454535352525251515050504F4F4F4EA4
:101B30004E4D4D4D4C4C4C4B4B4B4A4A4A494949F2
:101B40004848484747474746464645454544444434
:101B5000444343434342424242414141002B26D445
:101B6000770021D01CB54FEA370703B44FF01000BF
:101B70004FF010014FF000000FBCBDE810400BF11A
:101B8000010BBBF1010F08BF5FEA170722BF12F17B
:101B9000010211F101014FF0004143F1000300F097
:101BA000004043EA00007047F9D35708DAE746EAF5
:101BB000064613F1400F4FEA16461FDD13F1200FC2
:101BC000DFBF16430A46002120335B42C8D0C3F171
:101BD000200746EA064602FA07F74FEA164646EAA3
:101BE0000706C3F1200722FA03F201FA07F721FAE8
:101BF00003F14FF0000342EA0702B1E746EA0206AA
:101C000046EA06464FEA164646EA0106BCBF46EAE1
:101C10000646360C4FF000034FF000024FF0000173
:101C20009EE72DE9C048934630B491E8380007C8D4
:101C300031EA400C48BF34EA430C03D5FFF7F2FD0C
:101C4000FFF78CFFF0BCBDE800882DE9C048934643
:101C500030B491E8380007C810F0804F08BF13F087
:101C6000804F03D100F005F8FFF778FFF0BCBDE826
:101C7000008820F07F4780EA030023F07F4C07EBC9
:101C80000C03A3F57C5300F00040A3F1FE0392F097
:101C9000000F00F0B38095F0000F00F077802DE981
:101CA00001494FEA11404FEA144621EA004800FB7F
:101CB00006FC24EA064708FB06F607FB08F800FBCB
:101CC00007F718EB06484CEB164C4FEA124B18EB93
:101CD00007484FEA15464CEB174022EA0B4E0BFB28
:101CE00006FC25EA06470EFB06F607FB0EFE0BFB7D
:101CF00007F71EEB064E4CEB164C4FF000061EEBA2
:101D0000074E4CEB174B18EB0B0840F1000018EB9B
:101D10000E0B58EB000840F100008F1A4FF0000145
:101D20003CBFC943661B14BFB5EB040C00213CBF8C
:101D3000C943F61B4FEA17444EEA8E0E27EA0445C4
:101D40004FEA1C4704FB07622CEA074C05FB07F728
:101D50000CFB05F604FB0CFC16EB074642EB1742A6
:101D600016EB0C4642EB1C421BEB060658EB02023C
:101D7000414146EA9E0601D5BDE80189B6195241A6
:101D800041EB0101A3F10103BDE801894FEA1445CC
:101D90004FEA114724EA054621EA074C05FB07F400
:101DA00006FB07F70CFB06F105FB0CFC11EB0741EA
:101DB00044EB17444FEA124711EB0C4144EB1C442F
:101DC00022EA074C05FB07F206FB07F70CFB06F6B9
:101DD00005FB0CFC16EB074642EB174216EB0C46D4
:101DE00042EB1C456A1854F1000148BF7047B61910
:101DF000524141EB0101A3F10103704795F0000F3F
:101E000037D04FEA11424FEA144721EA024624EA4A
:101E1000074C02FB07F106FB07F70CFB06F402FB7D
:101E20000CFC14EB074441EB17414FEA154714EB48
:101E30000C4441EB1C4125EA074C02FB07F506FB6D
:101E400007F70CFB06F602FB0CFC16EB074645EB0E
:101E5000174516EB0C4645EB1C42121951F10001D7
:101E600048BF7047B619524141EB0101A3F101038C
:101E700070474FEA14454FEA114724EA054621EA24
:101E8000074C05FB07F106FB07F70CFB06F24FF0CA
:101E9000000605FB0CFC12EB074241EB174112EB6D
:101EA0000C4251EB1C4148BF7047921841EB0101B5
:101EB000A3F10103704710B5142002F0FBFA80076C
:101EC00005D10321BDE81040142002F059BB10BD1C
:101ED0002DE9F0410E46074615460421052000F085
:101EE0002FF880210A2002F04BFB0021012002F094
:101EF000F9FD002405E0395D092002F0F3FD641CC2
:101F0000A4B2B442F7D30321012002F0EBFD4FF459
:101F10007A74052002F0CEFA641E2404240C01D049
:101F20004007F6D5222002F0C5FA2870212002F0E1
:101F3000C1FA6870BDE8F0410021012002F0D2BD75
:101F400070B50C46054602F0B5FA20EA04012846B1
:101F5000BDE8704002F0C6BD70B5044601214020C6
:101F600001F0FEFE0A494FF40072012500200A60CC
:101F70000CB10D7100E008718D7103224A71C871B6
:101F80000349044800F0A5FE0348C0F8A45270BD00
:101F9000E022002000180240000043422DE9F04FEB
:101FA00087B001F053FDFD48002100900723322245
:101FB000084601F068FD0C2331220021352001F094
:101FC00063FE53220021412001F036FE54220021FD
:101FD000512001F031FE04220021612001F02CFE8D
:101FE00005220021712001F027FE0C23322203215B
:101FF000352001F049FE14220321412001F01CFE8E
:1020000015220321512001F017FE04220321612033
:1020100001F012FE05220321712001F00DFE0C23B8
:1020200033220621352001F02FFE712206214120A6
:1020300001F002FE72220621512001F0FDFD732203
:102040000621612001F0F8FD74220621712001F0C3
:10205000F3FDDFF84C93DFF84CB3DFF84C83002638
:102060000DF1040A01270025ADF8147001960296BF
:1020700003962C46049603F0ADFB88F8010001F0AE
:102080001FF8002005F03CF898F8010032287CD0B9
:1020900004DC2A2807D0312808D1CEE0332875D0B7
:1020A0003428F9D103E0C1A0FEF782F953E2C4A0BD
:1020B000FEF77EF901F0CAFCC74C0021082340223C
:1020C0000846009401F0DFFC872202213C2001F049
:1020D000B3FD882202214C2001F0AEFD89220221AD
:1020E0005C2001F0A9FD8A2202216C2001F0A4FDF0
:1020F00000F0E6FF0028FBD002282FD003282DD0C7
:102100000028D3DA01F0A2FC00210823402208466F
:10211000009401F0B8FC082202213E2001F08CFD61
:10212000092202214E2001F087FD872202213C2056
:1021300001F082FD882202214C2001F07DFD102358
:10214000A6A204213F2001F0E3FD212204214D201D
:1021500001F072FD222204215D20FAE101F076FCFB
:102160000021082340220846009401F08CFC8D22B7
:1021700000213C2001F060FD8E2200214C2001F066
:102180005BFD872200215C2001E0F2E100E301F029
:1021900053FD882200216C2001F04EFD322002F018
:1021A00027FE872202213C2001F046FD88220221E1
:1021B0004C2001F041FD352202215C2001F03CFD64
:1021C0004F2202216C2001F037FD322002F010FE78
:1021D00002F042FE02F040FE04F0EAFF002004F0AC
:1021E0008FFF2D2004F08CFF872004F089FFB4209E
:1021F00004F086FF042211463C2001F01DFD02225E
:1022000004214C2001F018FD402204215C2001F043
:1022100013FD412204216C2001F00EFD70A0FEF799
:10222000C7F8FEF77DF8C11700EB917121F00301AB
:10223000411A042004F0E0FBDAE301F007FC6D4CE6
:102240000021062340220846009401F01CFC1A22BB
:1022500002213E2001F0F0FC712202214E2001F00B
:10226000EBFC082202215E2001F0E6FC092202219B
:102270006E2001F0E1FC60A0FEF79AF86AA0FEF77C
:1022800097F806213222084604F080FC00E06D1C1D
:1022900004F0DCFE10B10A2DF9D301E00A2D3ED383
:1022A0006DA0FEF785F8C8220721002004F06EFC1F
:1022B00001F0CCFB0021062340220846009401F0E7
:1022C000E2FB082202213E2001F0B6FC0922022195
:1022D0004E2001F0B1FC782202215E2001F0ACFC1E
:1022E000792202216E2001F0A7FC10233BA20421D9
:1022F0003F2001F00DFD212204214D2001F09CFC26
:10230000222204215D2001F097FC4C46C9F8A072FE
:102310004FF4FA7002F06AFDC4F8A062A2E656A07B
:10232000FEF746F805A804F0E7FB4FF03202A0B331
:102330000321084604F02AFC01F088FB0021062353
:1023400040220846009401F09EFB082202213E2014
:1023500001F072FC092202214E2001F06DFC78226E
:1023600002215E2001F068FC792202216E2001F03A
:1023700063FC102319A204213F2001F0C9FC212293
:1023800004214D2001F058FC222204215D2001F09F
:1023900053FC4C46C9F8A0727EE088E0B01C0020D7
:1023A00000804242B02000200C000020B7B5BBD80E
:1023B000C9CFD2BBBCB6B2CBB5A50D0A0000000098
:1023C000C4FAD2D1BDF8C8EBCAD6CAC6CAB6B1F0F3
:1023D000C4A3CABD0D0A0000B00200202A000000FC
:1023E000CAD6CAC6CAB6B1F0BFAACBF8B3C9B9A695
:1023F0000D0A0000301F00200D0A0D0A3D3D3D3D35
:102400003D3D3D3D3D3D3D3D3D3D3D3D3D3D3D3DFC
:102410003D3D3D3D3D3D3D3D3D3D3D3D3D3D3D3DEC
:102420003D0D0A0D0A000000D6B4D0D0CBA2D6B81C
:10243000CEC6B2D9D7F72CC7EBBDABCAD6D6B8B784
:10244000C5B5BDD6B8CEC6C4A3BFE9B4A5C3FEB852
:10245000D0D3A6C7F80D0A00C3BBD3D0BCECB2E200
:10246000B5BDCAD6D6B8A3ACC7EBD6D8D0C2B2D900
:10247000D7F7210D0A000000BCECB2E2B5BDCAD608
:10248000D6B8A3ACCFD6D4DABFAACABCCBA2D6B832
:10249000CEC62E2E2E0D0A004FF4FA7002F0A6FCC6
:1024A000C4F8A062BDF81400002855D057E00521FB
:1024B000084604F06BFB4FF47A7002F097FC4D462F
:1024C000C9F8A072322002F091FC3046C5F8A06233
:1024D00004F0E4FB0146BDF81420FEA0FDF768FF00
:1024E000C8220721002004F051FB02F0B5FC04F0E3
:1024F0005FFE002004F004FE2D2004F001FE872082
:1025000004F0FEFDB42004F0FBFDBDF81410002023
:10251000491E04F071FAF5A0FDF74AFF01F096FAA2
:102520000021062340220846009401F0ACFA042260
:1025300002213E2001F080FB022211464E2001F0D4
:102540007BFB402202215E2001F076FB412202212A
:102550006E2001F071FB4BE2E8A0FDF729FFC822D5
:102560000721002004F012FB4FF47A7002F03EFCC9
:1025700078E501F06BFA1A220021122001F05CFBD1
:102580001B220021242001F057FB1C2200213620B1
:1025900001F052FB14220021482001F04DFB1522CE
:1025A00000215A2001F048FB0C23D9A2032112205C
:1025B00001F0AEFB0C23D9A20621002001F0A8FBFC
:1025C0001D2206210E2001F037FB1E2206211C20B1
:1025D00001F032FB0C23D2A20621382001F098FB37
:1025E00021220621462001F027FB22220621542029
:1025F00001F022FB6E2745462F7003F0BFFA2870CA
:102600006E28FAD0C0B2432809D0232835D0082C30
:102610002AD2DFE804F020237B7E8184878A01F0C0
:1026200015FA0C23AFF24C220321102001F070FBAD
:102630001D220321202001F0FFFA1E220321302059
:1026400001F0FAFA21220321402001F0F5FA2222BA
:10265000032150207DE70C23B2A201E00C23B4A299
:102660000321122001F054FB29780AF80410B3A0CA
:10267000FDF79EFE641C102CBEDB0AF8046001A965
:10268000B0A0FDF795FE01A9B448FEF76BF800284D
:102690004ED001F0DBF90021072340220846CDF897
:1026A00000B001F0F0F91B220221412001F0C4FA30
:1026B0001C220221512001F0BFFA352202216120A3
:1026C00001F0BAFA4F220221712001F0B5FA02F0AE
:1026D000C3FB04F06DFD002004F012FD2D2004F07A
:1026E0000FFD872004F00CFDB42004F009FDC82084
:1026F00002F07EFBFDF714FEC11700EB917121F093
:102700000301411A012004F077F931E00C2394A26F
:10271000A6E70C2395A2A3E70C2397A2A0E70C231E
:1027200098A29DE70C239AA29AE70C239BA297E715
:1027300001F08CF90021072340220846CDF800B0B3
:1027400001F0A1F914220221412001F075FA1522AD
:102750000221512001F070FA23220221612001F0B0
:102760006BFA24220221712001F066FA02F074FB58
:102770001023AFF298320421442001F0C9FA21223B
:102780000421542001F058FA222204216420E0E6BA
:1027900000F0ABFF01F05AF90A2002F029FB824D4C
:1027A000002104233C220846009501F06CF91A220E
:1027B0000321422001F040FA71220321522001F04E
:1027C0003BFA74220321622001F036FA00F07CFE0D
:1027D0000400FBD0012C39D0022C37D001F036F99F
:1027E00072A0FDF7E5FD4FF4967002F001FB0021A9
:1027F00004233C220846009501F045F9712201218D
:10280000402001F019FA74220121502001F014FA3D
:1028100078220121602001F00FFA79220121702035
:1028200001F00AFA1023AFF24C420321442001F0D8
:102830006FFA21220321542001F0FEF92222032104
:10284000642001F0F9F902F007FBCFE004F0B0FCDE
:10285000002004F055FC2D2004F052FC872004F0E9
:102860004FFCB42004F04CFC53A0FDF7A1FD55A093
:10287000FDF79EFD012C02D0022C06D101E00221C1
:1028800000E00321022004F0B7F801F0DFF84FF474
:10289000967002F0ADFA002104233C220846009510
:1028A00001F0F1F871220121402001F0C5F97422F4
:1028B0000121502001F0C0F918220121602001F00F
:1028C000BBF919220121702001F0B6F90E22032173
:1028D00044207FE0CBA2D6B8CEC620257320CAB64E
:1028E000B1F0B5BD69643D25640D0A00D6B8CEC609
:1028F000BDE2CBF8B3C9B9A60D0A0000D6B8CEC662
:10290000B1C8B6D4B2BBB3C9B9A60D0A0000000065
:1029100020202D2D2D2D2D2D2D2D2000233A000092
:10292000433A0000202A2D2D2D2D2D2D2D20000085
:10293000202A2A2D2D2D2D2D2D20000025630D0A56
:1029400000000000C4FACBF9CAE4C8EBB5C4C3DC8C
:10295000C2EBCEAA2025730D0A0000003A7A0008C7
:10296000202A2A2A2D2D2D2D2D200000202A2A2A2A
:102970002A2D2D2D2D200000202A2A2A2A2A2D2D0D
:102980002D200000202A2A2A2A2A2A2D2D20000064
:10299000202A2A2A2A2A2A2A2D200000202A2A2A06
:1029A0002A2A2A2A2A200000401E0020CBA2BFA8E3
:1029B000CAA7B0DC0D0A0000CBA2BFA8B3C9B9A654
:1029C0000D0A0000D5FDD4DAB1A3B4E6BCC7C2BC81
:1029D0000D0A000001F030F904220321542001F017
:1029E0002BF902220321642001F026F902F034FAC7
:1029F00098F801002A287FF491AC01F027F807B07D
:102A0000BDE8F08F00B5A1B0402101A8FDF76EFF31
:102A1000402111A8FDF76AFF3749012001F0FEFAB5
:102A20003548817800914378C27834A101A8FDF738
:102A3000CBFC102301AA0021182001F069F92E49CE
:102A40000120091D01F02CFB2B48001D817800910D
:102A5000437802782EA111A8FDF7B6FC642002F09D
:102A6000C5F9102311AA0221202001F051F9682292
:102A70000421102001F0E0F875220421202001F04B
:102A8000DBF86B220421302001F0D6F86C220421FF
:102A9000402001F0D1F86D220421502001F0CCF843
:102AA0006E220421602001F0C7F8762206210A2058
:102AB00001F0C2F8772206211A2001F0BDF8782231
:102AC00006212A2001F0B8F8902206213A2001F0D0
:102AD000B3F8082206214A2001F0AEF8912206211F
:102AE0005A2001F0A9F80E230DA206216A2001F058
:102AF0000FF921B000BD00001C000020323025304D
:102B000032782F253032782F2530327800000000BF
:102B1000253032783A253032783A25303278000044
:102B20002E2E00000149086070470000143C01404F
:102B300030B51A4A8379016853B313688B43136025
:102B4000111D0B680468A3430B60017911440B68E5
:102B5000046823430B60114B083319680468A143D0
:102B600019601C1D21680568A9432160417910295D
:102B700005D011440A68006802430A6030BD196834
:102B8000026811431960216800680143216030BD6B
:102B90000079104402688A43026030BD003C014065
:102BA00001490860704700000C3C024070B50646C1
:102BB000002529B1012927D0022928D04FF44075DA
:102BC00000F078F809281ED1124C206820F44070DB
:102BD0002060206828432060206820F0F8002060F2
:102BE000206846F0020108432060206840F48030ED
:102BF000206000F05FF8216821F002012160216867
:102C000021F0F801216070BD4FF48075D8E74FF4D2
:102C10000075D5E7103C02400D4909200A68D2032F
:102C200001D5012070470A68D20601D506207047F9
:102C30000A68D20501D5022070470A6812F0EF0F2A
:102C400001D00720704709688907FBD50820704725
:102C50000C3C024070B50D46064600F02BF80928E2
:102C600013D10A4C206820F440702060206840F4A2
:102C700000702060206840F001002060356000F0A6
:102C800019F8216821F00101216070BD103C02405B
:102C900005480068002805DA034804490C3801603B
:102CA0000349016070470000103C02402301674562
:102CB000AB89EFCD08B509208DF80000FFF7ACFF18
:102CC0008DF800009DF800000128F7D09DF8000065
:102CD00008BDF0B5002201274FF0030C0B6807FA7E
:102CE00002F52B40AB422CD1066853000CFA03F4DA
:102CF000A64306600E79D0F800E09E4046EA0E0634
:102D000006600E79012E01D0022E12D18668A643EC
:102D100086604E79D0F808E09E4046EA0E0686604E
:102D20004668AE43466045688E799640B6B23543F4
:102D30004560C568A543C560CC799C40C3681C4309
:102D4000C460521C102AC9D3F0BD4B07DB0E9A4059
:102D5000C90810B500EB8100016A0F249C40A14313
:102D60000162016A1143016210BD0246002012692E
:102D70000A4200D0012070470246002052690A42F0
:102D800000D00120704741837047018370470AB12A
:102D900001837047418370472DE9F047DFF8A89021
:102DA00082460024D9F8001021F44021C9F800100F
:102DB000D9F80010C9F80010244E254627464FF0D8
:102DC0000108C6F8A072042002F02CF8C6F8A08210
:102DD0006006040ED6F8240208B1641CE4B2042094
:102DE00002F020F86D1CEDB2082DEAD3BAF1000F05
:102DF000C6F8A072D9F80010484621F44021C9F85D
:102E00000010D9F8001041F48021C9F800100FD04B
:102E1000C6F8A472032006F5287602F003F8C6F877
:102E20000080032001F0FEFF37602046BDE8F087F8
:102E30004546C6F8A482022006F5287601F0F2FF86
:102E400035600220EEE700000004024000804042AE
:102E50002DE9F04105461648016821F44021016042
:102E6000016841F480210160124E0027C6F8A0726B
:102E70003C464FF00108280602D5C6F8A48201E0BE
:102E8000C6F8A4726806050E052001F0CBFFC6F84F
:102E9000A082052001F0C6FFC6F8A072052001F04F
:102EA000C1FF641CE4B2082CE5D3BDE8F08100004A
:102EB000000402400080404270B50D48016821F4D2
:102EC00040210160016841F480210160094C01202A
:102ED000C4F8A402C4F8A002042004F5287401F088
:102EE000A1FF00256560042001F09CFF256070BDF6
:102EF00000040240008040420E4810B5016821F4F1
:102F000040210160016841F4802101600A4C0020E9
:102F1000C4F8A002C4F8A402042004F5287401F047
:102F200081FF012020606060BDE81040042001F0B6
:102F300079BF0000000402400080404270B5124892
:102F40000024016821F440210160016801600F4DF7
:102F50000126C5F8A462032001F064FFC5F8A06251
:102F6000032001F05FFF07E0641CE4B2FA2C03D9F0
:102F7000FFF7C2FF012070BDD5F824020028F3D16D
:102F8000C5F8A00270BD000000040240008040426D
:102F900010B50446FFF790FFE620FFF759FFFFF753
:102FA000CDFF18B1FFF7A8FF002010BD2046FFF7A6
:102FB0004FFFFFF7C3FFFFF77FFFE720FFF748FF53
:102FC000FFF7BCFF0020FFF7E7FE0446FFF794FF82
:102FD000204610BD70B515460C460646FFF76CFF3F
:102FE000E620FFF735FFFFF7A9FF18B1FFF784FFD1
:102FF000012070BD3046FFF72BFFFFF79FFFFFF763
:103000005BFFE720FFF724FFFFF798FF08E0012CA4
:103010000CD00120FFF7C0FE641E05F8010BA4B21E
:10302000002CF4D1FFF768FF002070BD0020F1E70D
:1030300010B5FFF741FFE620FFF70AFFBDE810409B
:10304000FFF75ABF70B50C460546FFF735FFE6207F
:10305000FFF7FEFEFFF772FF18B1FFF74DFF0120EB
:1030600070BD2846FFF7F4FEFFF768FF2046FFF724
:10307000EFFEFFF763FFFFF73FFF002070BD00008A
:103080007CB50121022000F06BFE01208DF80400C8
:103090008DF8060003208DF805000020074D4FF441
:1030A00040748DF80700009469462846FFF711FE2A
:1030B00021462846FFF769FE7CBD0000000402405F
:1030C00038B50020009003F035FC174D002405EBC7
:1030D0004400417815F81400FFF7B4FF641CE4B213
:1030E0001E2CF4D3002003F025FC6A460221432065
:1030F000FFF770FF98B9BDF8000080B1402804D0F8
:10310000802807D04FF0FF3038BD08A0FDF750F9F8
:10311000012038BD0AA0FDF74BF9022038BD32204E
:1031200001F064FE002038BD417A0008BCECB2E238
:10313000B5BDCAD6CAC6CBB3CAB1D5EB0D0A00001D
:10314000BCECB2E2B5BDCAD6CAC6C4E6CAB1D5EBBC
:103150000D0A000070B5012003F03CFC0C4D01206D
:10316000C5F8A4020B4EC6F8BC02052005F529756A
:1031700006F52F7601F056FE00243460052001F09C
:1031800051FE2C60BDE87040052001F04BBE0000F0
:10319000008041420000424270B5012003F01AFC59
:1031A00009480124C0F8A442084D0020C5F8BC021B
:1031B000052005F52F7501F035FE2C60BDE8704047
:1031C000052001F02FBE0000008041420000424275
:1031D00070B50024204603F0FDFB0A4D0120C5F820
:1031E000A402052001F01EFE0748D0F83C0200B101
:1031F00001240020C5F8A402052001F013FE20469A
:1032000070BD000000804142000042422DE9F041C3
:103210004FF4407000F010FC00F0FEF801F07AFD71
:103220004FF4E135284604F011F8284604F05CF824
:1032300000F05BFA0120FEF78FFE00F045FC00F085
:1032400005FC4FF4FA784446404601F0D1FD204693
:1032500001F0CCFD2CA0FDF7ABF84FF47A7405E03B
:1032600037A0FDF7A5F8204601F0C0FD01F0DCFF16
:103270000028F5D1384C0027C4F8A472642004F566
:10328000297401F0B3FD01262660642001F0AEFD33
:103290002760642001F0AAFD2660642001F0A6FDED
:1032A0002EA0FDF785F803F0C5F802F0F7FB36A075
:1032B000FDF77EF803F07CFF2D2003F021FF38A0FE
:1032C000FDF776F8444605E0204601F08FFD39A071
:1032D000FDF76EF8284603F0F5FD0028F4D13CA078
:1032E000FDF766F805E040A0FDF762F8204601F022
:1032F0007DFD03F001FB0028F5D041A0FDF758F853
:10330000BDE8F04100F03CBF546869732069732048
:1033100065737038323636206D7174742077697435
:103320006820616C6979756E2074657374206279A8
:1033300020746561636865722E77656E0D0A000002
:10334000657370383236365F6D7174745F696E699B
:1033500074202E2E2E0000000080424265737038CB
:1033600032363620636F6E6E65637420616C6979E6
:10337000756E2077697468206D717474207375633D
:10338000636573730D0A0000BED8D5F3BCFCC5CCD1
:10339000B3F5CABCBBAFD5FDB3A30D0A0000000056
:1033A000B6E6BBFAB3F5CABCBBAFD5FDB3A30D0AF5
:1033B00000000000B5E7C8DDD6B8CEC6C4A3BFE99B
:1033C000C1ACBDD3D6D0202E2E2E0D0A0000000099
:1033D000B5E7C8DDD6B8CEC6C4A3BFE9D2D1C1AC6B
:1033E000BDD3C9CF0D0A0000CAD6CAC6CAB6B1F04D
:1033F000B3F5CABCBBAFD2ECB3A32121210D0A00A7
:10340000CAD6CAC6CAB6B1F0B3F5CABCBBAFB3C957
:10341000B9A6204F4B0D0A002DE9F04701212020CD
:1034200000F09EFC0121102000F09AFC234C4FF488
:1034300000770220276020710025A5710326DFF8A0
:1034400080A06671E57121465046FFF742FC0922D3
:1034500011465046FFF779FC4FF480684FF00109A0
:10346000C4F8008084F80490A5716671E571214666
:103470005046FFF72EFC7003206084F80490A5717D
:103480006671E57121460F4C2046FFF722FC0122B0
:1034900039465046FFF77BFC012241465046FFF774
:1034A00076FC012251032046FFF771FC2046BDE85F
:1034B000F04701229103FFF76ABC0000B022002010
:1034C00000140240001002402DE9F0413949522019
:1034D00000F049F910B10020BDE8F08135480C300A
:1034E00000F0ACF833480C3000F070F9314B064670
:1034F0000C335A1D0421602000F0CEF82D49042021
:10350000173100F025FA2C49042000F013F9074682
:1035100028484278017829A0FCF74AFF2EA0FCF742
:1035200047FF244D00240C352EA0295DFCF740FFF9
:10353000641CE4B2052CF7D32CA0FCF739FF31460C
:103540002BA0FCF735FF39462FA0FCF731FF34A044
:10355000FCF72EFF184D002422A0295DFCF728FF60
:10356000641CE4B2122CF7D3334C0126C4F8A062D9
:103570004FF4967004F5287401F03AFC002525609C
:103580002660C82001F034FC25600A4905220C3170
:10359000A1F10A00FDF7F8F840B1064905220C3107
:1035A000481FFDF7F1F818B1681E95E7012093E771
:1035B000022091E7FC2200201C4B00206361726412
:1035C0005F707964656275663A253032582025301F
:1035D00032580D0A00000000BFA8BAC5CEAA203A92
:1035E0000000000025303258200000000D0A0000C5
:1035F000BFA8C8DDC1BFCEAA203D2025644B6269AB
:1036000074730D0A00000000B6C1BFA8D7B4CCACDB
:103610002830CEAAD5FDB3A3293D25640D0A0000AC
:10362000B6C1C8A1BFA8C6ACCAFDBEDDBFE9CAFD10
:10363000BEDD203A20000000008042427CB50546F5
:10364000082100240846FEF77BFC80210E20FEF7AF
:1036500077FC00210D2001F045FA932028702020EE
:10366000687001A82B460090022219460C2000F039
:10367000E2F806000AD10022A85C521C4440D2B2F3
:10368000042AF9D3A85CA04200D0022680210E2093
:1036900000F076FF30467CBD30B585B08DF8040073
:1036A0008DF80510002001A9145C0D18401CC0B253
:1036B000AC700628F8D300200C181A5C401CC0B26D
:1036C00022720428F8D304A800900B460C220E2086
:1036D00000F0B1F8040004D1082000F0EBFE000770
:1036E00000D4022405B0204630BD10B500F0FCFE29
:1036F00000F050F88D212A2001F0F4F93E212B2012
:1037000001F0F0F932212D2001F0ECF900212C20FC
:1037100001F0E8F94021152001F0E4F93D211120E4
:1037200001F0E0F90021012001F0DCF9BDE81040D2
:10373000FEF7C1BB1CB50C46302121706070A21C85
:1037400002212046FEF7C4FB01A823460090042274
:1037500019460C2000F06FF818B9BDF80410902934
:1037600000D002201CBD7CB50C46054607210D206B
:1037700001F0B8F9257001A82346009001221946EE
:103780000C2000F058F818B9BDF80410102900D02A
:1037900002207CBD70B50C4C0125C4F8AC52284603
:1037A00004F52B7401F03EFB00202060284601F058
:1037B00039FB2560284601F035FBBDE870400F213C
:1037C000012001F08FB900000000414210B586B021
:1037D00093218DF8041070218DF8051000218DF8CB
:1037E0000A1001AA5418435CA370445C9DF80A3087
:1037F000491C6340C9B28DF80A300429F2D307216D
:1038000001A8D21DFEF764FB08210846FEF798FBCD
:1038100004A801AB0090092219460C2000F00BF817
:1038200018B9BDF81000182802D0002006B010BD4D
:103830009DF80400FAE72DE9FF5F0025DDF838B0B8
:1038400017468A4680464FF002092E460C2805D0BE
:10385000B8F10E0F04D11225102601E0772530268D
:1038600045F08001022001F03DF980210420FEF79F
:1038700067FB80210A2000F083FE0021012001F077
:1038800031F9002406E01AF80410092001F02AF9A1
:10389000641CA4B2BC42F6D34146012001F022F9D7
:1038A000B8F10C0F03D180210D2000F069FE42F227
:1038B0001074042000F0FEFD641E24040746240C4E
:1038C00003D0F80701D13742F3D080210D20FEF755
:1038D00037FB8CB3062000F0EDFD10F01B0F01D07C
:1038E000022028E0B8F10C0F24D10A2000F0E2FDFC
:1038F00005460C2000F0DEFD10F007004FEAC50180
:1039000004D008390844ABF8000001E0ABF800101F
:1039100025B1122D00D91225002409E00125FBE76D
:10392000092000F0C7FD014603980155641CA4B2AC
:10393000AC42F5D30020814680210C2001F0D2F862
:103940000021012001F0CEF804B04846BDE8F09F08
:1039500070B588B00C46A0218DF8041001AD8DF82B
:10396000050002212846AA1CFEF7B2FA06AE01ABFA
:10397000042219460C200096FFF75DFF38BBBDF806
:103980001800042823D19DF8040000F00F000A2835
:103990001DD10020215C2954401CC0B21028F9D34D
:1039A00005AA102101A8FEF793FA01AB12221946CD
:1039B0000C200096FFF73FFF48B9BDF81810042906
:1039C00005D19DF8041001F00F010A2900D0022052
:1039D00008B070BD30B50F23C27801780125FAB167
:1039E000144A126801F1E02102F4E062C2F5E062DB
:1039F000C2F30722C2F10404D3404278A240847883
:103A00001C401443220181F80024007800F01F01BB
:103A10008D404009800000F1E020C0F8005130BD29
:103A200001F01F0085404809800000F1E020C0F847
:103A3000805130BD0CED00E00249084302490860A6
:103A4000704700000000FA050CED00E070B500259D
:103A5000002105F1B00000F076F90021084600F0E1
:103A600072F90021102000F06EF9002401210020DD
:103A700000F069F9641CE4B2802CF7D36D1CEDB240
:103A8000082DE5D370BD2DE9F0471F4690460E4640
:103A900082460025DDF8209011E03146504600F0C6
:103AA000B5F8544607E019F8050001216D1C00F037
:103AB0004AF9641CE4B24445F5D3761CF6B2BE4222
:103AC000EBD3BDE8F087000070B50121182000F0AD
:103AD00047F9494C4FF40040012520602571A5713C
:103AE00003266671E57121464448FFF7F2F8680243
:103AF00020602571A5716671E57121464048FFF788
:103B0000E8F84048C0F8A4523F48C0F8BC52C8206A
:103B100001F06EF90021AE2000F015F900210846F1
:103B200000F011F90021102000F00DF900214020D3
:103B300000F009F90021B02000F005F900218120F2
:103B400000F001F90021FF2000F0FDF80021A12084
:103B500000F0F9F80021A62000F0F5F80021A820D7
:103B600000F0F1F800213F2000F0EDF80021C8201E
:103B700000F0E9F80021D32000F0E5F80021084624
:103B800000F0E1F80021D52000F0DDF800218020D0
:103B900000F0D9F80021D82000F0D5F80021052048
:103BA00000F0D1F80021D92000F0CDF80021F1205B
:103BB00000F0C9F80021DA2000F0C5F80021122039
:103BC00000F0C1F80021DB2000F0BDF8002130201A
:103BD00000F0B9F800218D2000F0B5F80021142084
:103BE00000F0B1F80021AF2000F0ADF8BDE8704062
:103BF00000212E2000F0A7B824230020001002404E
:103C0000000C0240008041420000424210B50A46CA
:103C10000446002102F1B00000F095F8102040EABF
:103C20001410002100F08FF804F00F00BDE81040E0
:103C3000002100F088B800002DE9F04115460E463D
:103C40000746FFF7E3FF0F48002400EB851501212D
:103C5000285D00F078F8641CE4B2102CF7D3761CD1
:103C6000F1B23846FFF7D2FF00242819012190F85D
:103C7000200000F068F8641CE4B2102CF5D3BDE815
:103C8000F08100002C2300202DE9F041203A00248F
:103C90000F468046D5B27F2803D900208F1C80466E
:103CA000FFB2102B394610D0FFF7B0FF164905EBD5
:103CB000450001EB40050121285D00F044F8641C3B
:103CC000E4B2062CF7D3BDE8F081FFF79FFF0F4E5B
:103CD00004EB05100121305C00F035F8641CE4B2FF
:103CE000082CF5D37F1CF9B24046FFF78FFF002464
:103CF00004EB051030440121007A00F024F8641C24
:103D0000E4B2082CF4D3DEE77D7A0008A57C000835
:103D10002DE9F041984617460E46044600250DE071
:103D2000434631462046FFF7AFFF0834E4B2782C13
:103D300002D90024B61CF6B26D1CEDB27A5D002AE1
:103D4000EED1BDE8F081C0B209B100F0B4BE00F020
:103D50009BBE0000014908627047000000000E424F
:103D6000044A0029116801D0014300E08143116039
:103D70007047000030380240044A0029116801D021
:103D8000014300E081431160704700004038024069
:103D9000044A0029116801D0014300E08143116009
:103DA000704700004438024070B5204B1968204C21
:103DB00011F00C0104D06610042903D0082903D0A7
:103DC00004601BE0066019E0184A121F1168C1F375
:103DD0008055116801F03F0115B1B6FBF1F101E02A
:103DE000B4FBF1F114681268C4F388146143C2F3A0
:103DF0000142521C5200B1FBF2F1016019680F221E
:103E000002EA11110B4A545C0168E14041601C68F0
:103E1000072505EA9424145D21FA04F484601B68E4
:103E200005EA5333D25CD140C16070BD083802400E
:103E30000024F400CC47002002460020510901294B
:103E40000BD002290CD00849096802F01F02012397
:103E500093400B4200D00120704703497439F3E7C7
:103E60000149091FF0E70000743802400149086069
:103E700070470000800E474201490860704700000B
:103E80003C0E4742C0F30121032907D1074B1968B3
:103E9000074A21F4F81102400A431A6003496831C5
:103EA0000A68C0F30B0002430A60704708380240FA
:103EB000FFFCFF0F010901EB810100F00F0000EB97
:103EC0004100C0B27047002103E0491C0A38C9B262
:103ED000C0B20A28F9D2090740EA11607047000011
:103EE0002DE9F04101210807FFF746FF0120FFF708
:103EF00031FF0120FFF7BAFF6120FFF79DFF002887
:103F0000FAD04FF40070FFF7BDFF0120FFF7B4FFB8
:103F100000F060FA25487F2100254160F921056005
:103F2000816000F005F9224821210826C170467001
:103F300001248470072707700146204600F08AF9A3
:103F40001B484021001DC170192101704770552187
:103F500081700146012000F0C9F9002000F074FAD8
:103F6000042000F05DFA002000F010FAA7033846A4
:103F700000F020F80121384600F0BAF8012000F0E6
:103F800063FA0B48A1050830016005714671847120
:103F9000FEF7CEFD06480321001F017041708170BD
:103FA000C470BDE8F041FFF715BD0000004B0020D4
:103FB000EC220020C0F30F1040F08000C143034802
:103FC000026802F080021143016070470C28004033
:103FD00008B50D49002000900868400612D44FF043
:103FE000FF3008608B130868009A00F04000521CF4
:103FF00000929A4201D00028F5D00868400601D40A
:10400000002008BD012008BD0C28004002480168BE
:1040100021F08001016070470C280040020010B5BB
:104020000F480C4601680F4801EA00014FEA1140B1
:10403000E070C1F30423637001F03F03A370C1F388
:10404000423121700AD1FFF735FFE0706078FFF749
:1040500031FF6070A078FFF72DFFA07010BD000049
:10406000042800403FFFFF000B4A0021126802F0C5
:104070000403094A383A126803EAD03302401A436B
:10408000064B1B6803EA101003D00004000C00D09C
:104090000121084670470000402800400C280040DD
:1040A000020010B510480C460168104801EA0001F2
:1040B000C1F305402070C1F30623637001F07F0354
:1040C000A3704FF0400303EA1141E1700AD1FFF7FA
:1040D000F1FE20706078FFF7EDFE6070A078FFF7CA
:1040E000E9FEA07010BD0000002800407F7F7F0027
:1040F00030B50E4DCA222A6053222A600B4C0B4B5E
:104100001C3C1C33002920F00402216800F004004C
:1041100004D0114321601968014303E091432160F9
:10412000196881431960FF20286030BD24280040B1
:1041300070B5124D04460026CA202860532028601E
:10414000FFF746FFA8B10D481C38016821F0400177
:10415000016001682268114301600848A1681438B1
:1041600001600168A28841EA02410160FFF74EFF49
:104170000126FF202860304670BD00002428004042
:1041800070B5002000F05CF848F68804A04207D023
:10419000FFF7A6FE2146BDE87040002000F080B980
:1041A00001210807FFF7E8FD0120FFF7D3FD0120FB
:1041B000FFF75CFE6120FFF73FFE0028FAD04FF4C6
:1041C0000070FFF75FFE0120FFF756FE00F002F9D6
:1041D00019487F2100244160F92104608160FFF7C4
:1041E000A7FF002000F030F9042000F019F90020AA
:1041F00000F0CCF84FF480452846FFF7DBFE0121A4
:104200002846FFF775FF012000F01EF90B48290230
:10421000016004710821417101248471FEF788FC5A
:10422000064803210C38017041708170C470BDE8EC
:104230007040FFF7CFBB0000004B0020F4220020AD
:1042400008B5034901EB80000090006808BD00003C
:104250005028004070B50C460026010060780FD051
:10426000FFF728FEA078FFF725FEA078E17840EA66
:10427000014560782178000240EA4130054315E0AD
:10428000C10603D520F010000A306070E078FFF717
:104290001AFE05046078FFF716FE45EA0025A078AF
:1042A000FFF711FE0543207845EA40350D4CCA2042
:1042B000206053202060FFF78BFE78B10A4805404C
:1042C000084820380560FFF7A1FE06481C38006842
:1042D000800602D400F07EF800B10126FF202060A5
:1042E000304670BD242800403FFFFF002DE9F0411B
:1042F0000C460026234F01002078396832464FEAE9
:10430000416104D0002930DAFFF7D4FD2EE0002906
:1043100000DBE270FFF7D7FD05046078FFF7D3FDFF
:1043200045EA0025A078FFF7CEFD0543E07845EA91
:104330000045144CCA201C34206053202060FFF735
:1043400047FE68B1104805400E4808380560FFF781
:104350005DFE3868800602D400F03CF800B101260A
:10436000FF2020603046BDE8F081E270A07821781F
:1043700040EA01456078E178000240EA01400543E7
:10438000D7E70000082800407F7F7F000549CA2248
:104390000A6053220A60034A103A1060FF20086046
:1043A000704700002428004010B54FF48044204698
:1043B000FFF75AFE012809D1054908602046FFF79A
:1043C000F9FD2002BDE81040FEF7ACBB10BD0000B7
:1043D0000000002018B50020104B0090CA20186083
:1043E000532018600D491839086820F0A0000860B3
:1043F0004FF400340868009A00F02000521C00922C
:10440000A24201D00028F5D00868800601D501201D
:1044100000E00020FF21196018BD000024280040A2
:10442000084ACA2111605321116006491C390B68E2
:1044300023F007030B600B6803430B60FF20106041
:10444000704700002428004018B50021134B00914C
:10445000CA2119605321196010491C3900280868C5
:1044600003D040F48060086014E020F480600860AD
:104470000A4918398C130868009A00F00400521C8D
:104480000092A24201D00028F5D00868400701D46C
:10449000002000E00120FF21196018BD2428004001
:1044A00008B5034A02EB80000090016008BD0000DF
:1044B0005028004010B5094C0021C4F898127E2104
:1044C00001EA400040F0800004F5267402F054FA3E
:1044D00000F006F80121216010BD0000008041427B
:1044E000002002F049BA00002DE9FC41012104201E
:1044F000FFF736FC01210820FFF732FC01258DF87B
:10450000045000244FF404608DF806400226184F32
:1045100000908DF805608DF8074069463846FEF733
:10452000D8FB8DF80450C0208DF8064000908DF81F
:1045300005608DF8074069460E48FEF7CAFB8DF806
:10454000044028028DF8064000908DF805608DF833
:10455000074069463846FEF7BCFB0748C0F898524A
:10456000C0F89C420548C0F89852BDE8FC810000A4
:1045700000080240000C024000804142000041421D
:1045800070B50C460546FFF795FF40EA0401284642
:10459000BDE8704000F0A6BA0CB500222749009291
:1045A0000192086840F4803008604FF4A043086826
:1045B00000F4003001900098401C0090019810B960
:1045C00000989842F3D10868800334D50120019007
:1045D0001A484030026842F080520260184802686F
:1045E00042F44042026015480830026802600268E6
:1045F00042F400420260026842F4A0520260031FCB
:10460000104A1A600A6842F080720A600A689201D1
:10461000FCD50D4940F205720A60016821F00301E2
:104620000160016841F0020101600168C1F381018C
:104630000229FAD10CBD01920CBD000000380240E5
:104640000070004008544007003C0240124810B57A
:10465000016841F4700101601048016841F00101F6
:1046600001600E4A00210832116002680C4B1A40AA
:104670000260031D0B4A1A60026822F48022026065
:1046800006480C300160FFF787FF03494FF00060D8
:104690008039086010BD000088ED00E0003802405D
:1046A000FFFFF6FE103000240029018802D041F0FF
:1046B000800101E021F0800101807047002901881C
:1046C00002D041F0010101E021F0010101807047B9
:1046D00030B5028C22F001020284028C8388048BA4
:1046E00022F0020224F073050C882C438D891543B7
:1046F0004A882A430C4DA84202D00C4DA8420DD145
:1047000022F00805CA8923F440732A4322F00405E5
:104710008A882A430D8A1D434B8A2B438380048356
:1047200089684163028430BD0000014000040140FB
:10473000028B22F008020A430283704741637047EC
:1047400030B50288164C174DA0420DD0A8420BD0B0
:10475000B0F1804F08D0144B984205D0134B9842CB
:1047600002D0134B984203D122F070034A881A43B7
:10477000104B984206D0104B984203D022F440735D
:104780000A891A4302804A68C2620A880285A042E6
:1047900001D0A84201D1897A01860121818230BDF0
:1047A00000000140000401400004004000080040F7
:1047B000000C0040001000400014004070B5094C8F
:1047C00040F225552946204600F094F8012808D1EA
:1047D000204600F01DF929462046BDE8704000F053
:1047E00072B870BD0010014070B5164C40F22555EE
:1047F0002946204600F07EF8012821D1204600F00D
:1048000007F9114AC1B21068104B0344401C1060F4
:1048100019701068B0F5007F02D30D4A01201060B6
:104820000C4E304600F0F8F88021304600F05BF87E
:104830000028F9D029462046BDE8704000F043B872
:1048400070BD000000440040C82200200049002044
:10485000CC2200200010014070B5144C40F22555C8
:104860002946204600F046F801281DD1204600F0D8
:10487000CFF80F4EC3B232680E481044521C32605B
:1048800003700D4802680D48012112B1232B00D19D
:1048900001603268B2F5007F00D3016029462046EE
:1048A000BDE8704000F00FB870BD00000048004047
:1048B000B8470020504D0020BC470020C0470020D2
:1048C000C943018070470A0A01219140C943018010
:1048D00070470029818902D041F4005101E021F4A0
:1048E0000051818170470246002012880A4200D0A0
:1048F0000120704770B501F01F0501260024C1F3A7
:10490000421306FA05F2012B0FD0022B0FD0838A37
:104910004FEA11210088134206FA01F600EA060068
:1049200001D000B10124204670BD8389F0E7038ADD
:10493000EEE710B5C1F3421301F01F040121A140BD
:10494000012B07D0022B07D01430002A026805D0B3
:104950000A4304E00C30F8E71030F6E78A430260BF
:1049600010BD00007FB50446008A0D46C98820F4BA
:10497000405001432182A08941F20C618843A988FB
:104980002A8911436A8902431143A181A08A20F434
:104990004071A8890843A0826846FFF705FA1A48C3
:1049A000844202D01948844201D1039800E0029861
:1049B000A189090400EBC00101EB0010296801D5B1
:1049C000490000E08900B0FBF1F06422B0FBF2F195
:1049D00009010B096FF018056B4300EB8300A389F5
:1049E0001D044FF0320306D503EBC000B0FBF2F01C
:1049F00000F0070005E003EB0010B0FBF2F000F060
:104A00000F00084320817FBD0010014000140140C9
:104A10008088C0F308007047C1F3080181807047A7
:104A20002DE9F0478146012001F0D4FF144D002606
:104A3000C5F8A462134FC7F8BC62052000F0F2F974
:104A400007244FF0010AA8460AFA04F0554610EA76
:104A5000090F02D0C7F8BC5201E0C7F8BC620520BC
:104A600000F0E0F9C8F8A452052000F0DBF9C8F81E
:104A7000A462052000F0D6F9641EE5D5BDE8F087F4
:104A8000008041420000424210B50446FEF762FB3E
:104A90007820FFF7C5FFFEF79BFB0020FFF7C0FF64
:104AA000FEF796FB2046FFF7BBFFFEF791FBBDE844
:104AB0001040FEF771BB10B50446FEF74BFB7820A3
:104AC000FFF7AEFFFEF784FB4020FFF7A9FFFEF7DC
:104AD0007FFB2046FFF7A4FFFEF77AFBBDE81040FE
:104AE000FEF75ABB70B5094C0D460021C4F8981268
:104AF0007E2101EA400004F5267401F03DFF2846BE
:104B000001F03AFF0120206070BD000000804142AA
:104B100003B401984100009850EAC12018BF042056
:104B20004A0D18BF40F0010040F2FF72B2EB515F36
:104B300008BF40F00200012808BF052002B07047FE
:104B400030380A2801D20120704700207047704792
:104B5000F8B50125ADF8005000242DA0FBF728FC86
:104B600037A0FBF725FC06213222084602F00EF89A
:104B700000E0641C02F06AFA10B10A2CF9D301E0DB
:104B80000A2C03D33BA0FBF713FC29E041A0FBF761
:104B90000FFC684602F008F928B1C0B202F07EF8B6
:104BA000014645A01AE0BDF8001049A0FBF700FC43
:104BB000BDF8000002F090F904004FF47A764FF04F
:104BC000320213D00321084601F0E0FF304600F026
:104BD0000DF9E0B202F062F8014643A0FBF7E8FBF2
:104BE000C8220721002001F0D1FFF8BD05210846A9
:104BF00001F0CCFF304600F0F9F83F4EC6F8A05265
:104C0000322006F5287600F0F1F800203060E0E769
:104C10000D0A0D0A3D3D3D3D3D3D3D3D3D3D3D3D8A
:104C20003D3D3D3D3D3D3D3D3D3D3D3D3D3D3D3DB4
:104C30003D3D3D3D3D3D3D3D3D0D0A0D0A00000021
:104C4000D6B4D0D0CCEDBCD3D6B8CEC6B2D9D7F777
:104C50002CC7EBBDABCAD6D6B8B7C5B5BDD6B8CE96
:104C6000C6C4A3BFE9B4A5C3FEB8D0D3A6C7F80D88
:104C70000A000000C3BBD3D0BCECB2E2B5BDCAD6BB
:104C8000D6B8A3ACC7EBD6D8D0C2B2D9D7F7210DCE
:104C90000A000000BCECB2E2B5BDCAD6D6B8A3ACDF
:104CA000CFD6D4DABFAACABCCCEDBCD3D6B8CEC658
:104CB0002E2E2E0D0A000000BBF1C8A1CEB4CAB939
:104CC000D3C3B5C4D3C3BBA769642025730D0A0041
:104CD000BDABCAB9D3C3B5C4D3C3BBA76964CEAA9D
:104CE00025640D0A00000000CCEDBCD3D6B8CEC6BA
:104CF0002025730D0A00000000804242034610B5D3
:104D00000020024603E09C5C6040521CD2B28A4202
:104D1000F9D310BD10B501212020FFF721F80B4871
:104D20004FF480710A4C01600121017100218171F1
:104D3000032141710221C17101462046FDF7C9FFDF
:104D40002046BDE810400821FEF71DB8C022002013
:104D50000014024010B50FA0FBF72AFB01F05CFF26
:104D60000446C0B201F09AFF014616A0FBF720FBF3
:104D700054B9194C0120C4F8A002322004F528745B
:104D800000F036F800202060BDE8104013A0FBF7CB
:104D90000FBB00000D0A0D0A3D3D3D3D3D3D3D3D33
:104DA0003D3D3D3D3D3D3D3D3D3D3D3D3D3D3D3D33
:104DB0003D3D3D3D3D3D3D3D3D3D3D3D3D0D0A0DB6
:104DC0000A000000C9BEB3FDCBF9D3D0D3C3BBA743
:104DD0002025730D0A00000000804242C9BEB3FDC9
:104DE000D3C3BBA7B3C9B9A60D0A0000AFF30080B7
:104DF00070B50B4A00244FF0E0214FF47A75052678
:104E0000136808E0B3FBF5F2521E4A618C610E6133
:104E10000A69D203FCD5401E0C61F3D270BD0000BC
:104E2000DC47002010B54FF0E02100220A61084B5A
:104E3000084C1B68B3FBF4F343435B1E4B618A6170
:104E4000052008610869C003FCD50A6110BD000097
:104E5000DC47002040420F002DE9F041184E0027AA
:104E6000C6F8B872C6F8B472164CC4F8A872C4F882
:104E7000A4724FF44878404604F5287406F52D7660
:104E8000FFF7B6FF012575603560A5606560776046
:104E90003760A76067604046FFF7AAFF756035601E
:104EA000A560656025604FF496763046FFF7A0FF59
:104EB000276025603046FFF79BFF2760BDE8F08143
:104EC000000042420080424238B539490020C1F812
:104ED000A402FEF7BBFD374C002107234022084601
:104EE0000094FEF7D0FD782202213C20FEF7A4FEBC
:104EF000902202214C20FEF79FFE042202215C201A
:104F0000FEF79AFE022211466C20FEF795FE0D2256
:104F100004214020FEF790FEFFF79EFFFFF79CFF65
:104F2000002002F0EDF82D2002F0EAF8872002F0D0
:104F3000E7F8B42002F0E4F82820FFF759FFFEF765
:104F400085FD00210723402208460094FEF79BFDC3
:104F50000C2203214020FEF76FFE902203215020F7
:104F6000FEF76AFE042203216020FEF765FE02229E
:104F700003217020FEF760FE182206214020FEF774
:104F80005BFE192206215020FEF756FEFEF75EFD5D
:104F900009A0FBF70DFAFBF7C3F9C11700EB9171FC
:104FA000BDE8384021F00301411A032001F024BD7F
:104FB00000804242B0000020CEDECFDFBDE2CBF861
:104FC000B3C9B9A60D0A000070B505460C461CA071
:104FD00000F03CFB4FF47A711EA000F009F910B10B
:104FE0004FF0FF3070BD1CA000F030FB1EA000F0A1
:104FF0002DFB284600F02AFB1BA000F027FB1BA07E
:1050000000F024FB18A000F021FB204600F01EFB5E
:1050100015A000F01BFB16A000F018FB41F288342D
:1050200021460CA000F0E4F838B1214611A000F0B0
:10503000DFF810B16FF0010070BD002070BD0000FE
:1050400041542B43574D4F44455F4355523D310D1D
:105050000A0000004F4B000041542B43574A415077
:105060005F4355523D000000220000002C0000006C
:105070000D0A0000434F4E4E454354007FB5054690
:105080000020009001900290039014460E461CA050
:1050900000F0DCFA1EA000F0D9FA284600F0D6FA9B
:1050A0001BA000F0D3FA1BA000F0D0FA18A000F06B
:1050B000CDFA304600F0CAFA15A000F0C7FA15A0E4
:1050C00000F0C4FA224614A16846FBF77DF9684651
:1050D00000F0BCFA11A000F0B9FA41F28834214680
:1050E0000FA000F085F840B121460FA000F080F835
:1050F00018B14FF0FF3004B070BD0020FBE7000096
:1051000041542B43495053544152543D0000000038
:10511000220000002C000000256400000D0A0000A1
:10512000434F4E4E454354004F4B000010B508B15D
:1051300007A000E008A000F089FA41F2883108A039
:1051400000F056F8002801D04FF0FF3010BD0000ED
:10515000415445310D0A0000415445300D0A00000C
:105160004F4B000010B510A000F070FA41F28834E7
:10517000214611A000F03CF810B14FF0FF3010BDF7
:105180004FF4FA60FFF732FE0CA000F05FFA214600
:1051900009A000F02DF810B16FF0010010BD0B490F
:1051A00001204860002010BD41542B4349504D4F11
:1051B00044453D310D0A00004F4B000041542B4344
:1051C000495053454E440D0A00000000B8470020E6
:1051D00010B505A000F03AFA4FF47A70FFF706FE1A
:1051E00002490020486010BD2B2B2B00B84700203F
:1051F00070B50C460546094E03E00120FFF7F6FDA9
:10520000641E29463046FBF7ADFA10B11CB10020F0
:1052100070BD002CF1D14FF0FF3070BD504D00201B
:105220004FF4E13002F0AEB810B5FFF7F9FFFFF729
:10523000CFFF28B13FA0FBF7BBF84FF0FF3010BD08
:1052400048A0FBF7B5F84FF4FA642046FFF7CEFD0F
:1052500000F0E6F928B14FA0FBF7AAF86FF00100C3
:1052600010BD2046FFF7C2FD0020FFF75FFF28B109
:105270004EA0FBF79DF86FF0020010BD53A0FBF7A6
:1052800097F82046FFF7B2FD58A15BA0FFF79CFE00
:1052900028B15BA0FBF78CF86FF0030010BD5EA097
:1052A000FBF786F82046FFF7A1FD40F25B7260A194
:1052B0006BA0FFF7E3FE28B16AA0FBF779F86FF067
:1052C000040010BD6FA0FBF773F82046FFF78EFDBA
:1052D000FFF748FF28B174A0FBF76AF86FF00500EC
:1052E00010BD7DA0FBF764F82046FFF77FFD87A285
:1052F00091A198A001F014F928B1A0A0FBF758F8EB
:105300006FF0060010BDA2A0FBF752F82046FFF791
:105310006DFD01220021A4A001F072FA28B1B1A014
:10532000FBF746F86FF0070010BDB5A0FBF740F89B
:10533000002010BD657370383236365F6578697449
:105340005F7472616E73706172656E745F747261A6
:105350006E736D697373696F6E206661696C0D0A97
:1053600000000000657370383236365F6578697406
:105370005F7472616E73706172656E745F74726176
:105380006E736D697373696F6E2073756363657394
:10539000730D0A00657370383236365F7265736557
:1053A00074206661696C0D0A000000006573703836
:1053B0003236365F656E61626C655F6563686F2863
:1053C0003029206661696C0D0A0000006573703831
:1053D0003236365F656E61626C655F6563686F2843
:1053E0003029737563636573730D0A00313233348A
:1053F000353637380000000041726374696300007D
:1054000065737038323636C1ACBDD3C8C8B5E3CA8F
:10541000A7B0DC0D0A00000065737038323636C163
:10542000ACBDD3C8C8B5E3B3C9B9A60D0A00000026
:10543000696F742D30367A30306831743138666A6D
:105440007834372E6D7174742E696F746875622E9E
:10545000616C6979756E63732E636F6D0000000077
:1054600054435000657370383236365F636F6E6E2A
:105470006563745F736572766572206661696C0D31
:105480000A000000657370383236365F636F6E6EE7
:105490006563745F736572766572207375636365A7
:1054A00073730D0A00000000657370383236365F82
:1054B000656E7472795F7472616E73706172656E1D
:1054C000745F7472616E736D697373696F6E206659
:1054D00061696C0D0A000000657370383236365F02
:1054E000656E7472795F7472616E73706172656EED
:1054F000745F7472616E736D697373696F6E20731C
:105500007563636573730D0A00000000314132302A
:105510003731313430333443453236333243363920
:1055200044344237303943333039343834314430FD
:1055300030424334000000004172637469635F6C61
:1055400069676874266763356C367778306D7035B7
:1055500000000000303030317C7365637572656D1A
:105560006F64653D332C7369676E6D6574686F6435
:105570003D686D6163736861317C00006D717474A6
:105580005F636F6E6E656374206661696C0D0A00FF
:105590006D7174745F636F6E6E6563742073756391
:1055A000636573730D0A00002F7379732F6763357A
:1055B0006C367778306D70352F4172637469635F34
:1055C0006C696768742F7468696E672F736572768B
:1055D0006963652F70726F70657274792F7365746B
:1055E000000000006D7174745F737562736372699B
:1055F00062655F746F706963206661696C0D0A0093
:105600006D7174745F7375627363726962655F74E0
:105610006F70696320737563636573730D0A0000AF
:1056200010B506A000F012F842F2107106A0FFF7C4
:10563000DFFD002801D04FF0FF3010BD41542B5248
:1056400053540D0A000000004F4B000010B50446F3
:105650004FF400710548FBF727F9054A0021116056
:105660002046BDE8104001F0F1BE0000504D002082
:10567000B847002001F0D4BE0B490020D1F8001239
:1056800001B901200949D1F808220AB940F0020005
:10569000D1F80C220AB940F00400D1F81012002908
:1056A00001D140F008007047000040420000424233
:1056B00010B508A0FAF77CFE02212020FDF776FA4B
:1056C000092801D00AA000E00DA0BDE81040FAF7BB
:1056D0006FBE0000464C4153485F4572617365538D
:1056E0006563746F722073746172740D0A00000038
:1056F0004572617365206572726F720D0A00000059
:10570000464C4153485F4572617365536563746FDE
:105710007220656E64730D0A00000000064A10B521
:1057200002EB811101F14003002202E010C9845014
:10573000121D9942FAD310BD000001082DE9F04175
:1057400007460D48002500EB811404F140060FE0E8
:1057500079592046FDF77EFA092807D007A0FAF705
:1057600027FEFFF7A5FF0120BDE8F081241D2D1DB8
:10577000B442EDD30020F7E700000108666C6173C6
:1057800068207772697465207265636F7264206641
:1057900061696C2C6E6F7720676F746F2065726122
:1057A000736520736563746F72210D0A0000000039
:1057B00070B5074D044681B22846FFF72DF98021C8
:1057C0002846FFF790F80028F9D0204670BD000069
:1057D000001001402DE9F84F724D4FF0000AC5F856
:1057E0009CA2714E4FF00108C6F89082DFF8BCB160
:1057F000CBF8BC826E4FC7F89C82CDF80080D7F8FA
:105800002402414630B90B466AA24FF400716A483F
:1058100000F068F9D5F8180230B968A2402168484C
:10582000009B00F05FF923246648D0F8180228B9DD
:1058300065A240216548009B00F054F9D6F820028B
:10584000B14670B1C5F89C82C9F890A2DA46CBF88F
:10585000BC82C7F89C8202210091D7F8240248B18B
:105860000FE05BA24FF480715A48009B00F03AF9B8
:105870002A24E7E70B4658A24FF400714E4800F087
:1058800031F9D5F8180228B954A240214C48009BA0
:1058900000F028F9DFF82CB1DBF8180228B950A283
:1058A00040214A48009B00F01DF9D9F8200288B138
:1058B000C5F89C823C48C0F890820020D146CAF8C6
:1058C000BC023E46C7F89C8203200090D7F8240211
:1058D00040B10EE043A24FF480713E48009B00F0BF
:1058E00001F9E5E740A24FF400713348009B00F056
:1058F000F9F8D5F8180228B93CA240213048009B9D
:1059000000F0F0F8DBF81802DA4628B938A2402196
:105910002E48009B00F0E6F8234FD7F8200270B124
:10592000C5F89C82C7F89082C9F8BC820020C6F8EE
:105930009C02D6F824024FF0040848B10FE02DA2D3
:105940004FF480712348009B00F0CCF83424E7E743
:10595000434629A24FF40071174800F0C3F8D5F868
:10596000180230B9434625A24021154800F0BAF884
:105970003324DAF8180230B9434621A240211348F3
:1059800000F0B0F83224D7F8200210B12046BDE86C
:10599000F88F43461BA24FF480710E4800F0A2F826
:1059A0003124F3E7008040420000404200004342BF
:1059B00000004142410000000008024023000000B6
:1059C000000402400000424230000000001002408B
:1059D0002A000000000002404300000039000000DF
:1059E00038000000370000004200000036000000D0
:1059F00035000000340000004400000033000000C7
:105A0000320000003100000038B50FA0FAF7D0FCDA
:105A1000684601F011FA0446C0B201F03FF90146B0
:105A2000BDF8002014A0FAF7C3FC002C0AD11A4CD0
:105A30000120C4F8A002322004F52874FFF7D8F939
:105A40000020206038BD00000D0A0D0A3D3D3D3D9F
:105A50003D3D3D3D3D3D3D3D3D3D3D3D3D3D3D3D76
:105A60003D3D3D3D3D3D3D3D3D3D3D3D3D3D3D3D66
:105A70003D0D0A0D0A000000B5E7C8DDD6B8CEC658
:105A8000C4A3BFE9D3C3BBA7D7DCCAFD20257320BD
:105A90002564200D0A0000000080424210B501215B
:105AA0001020FEF75DF90C4C1C2003212060002023
:105AB00020716171E07121460848FDF70AF9012162
:105AC0000846FEF74DF9012020602146BDE8104050
:105AD0000348FDF7FEB80000B82200200014024081
